{
  "contractName": "Calculator",
  "abi": [
    {
      "inputs": [],
      "payable": false,
      "stateMutability": "nonpayable",
      "type": "constructor"
    },
    {
      "constant": true,
      "inputs": [],
      "name": "getResult",
      "outputs": [
        {
          "name": "",
          "type": "uint256"
        }
      ],
      "payable": false,
      "stateMutability": "view",
      "type": "function"
    },
    {
      "constant": false,
      "inputs": [
        {
          "name": "num",
          "type": "uint256"
        }
      ],
      "name": "addToNumber",
      "outputs": [],
      "payable": false,
      "stateMutability": "nonpayable",
      "type": "function"
    },
    {
      "constant": false,
      "inputs": [
        {
          "name": "num",
          "type": "uint256"
        }
      ],
      "name": "substractNumber",
      "outputs": [],
      "payable": false,
      "stateMutability": "nonpayable",
      "type": "function"
    },
    {
      "constant": false,
      "inputs": [
        {
          "name": "num",
          "type": "uint256"
        }
      ],
      "name": "multiplyWithNumber",
      "outputs": [],
      "payable": false,
      "stateMutability": "nonpayable",
      "type": "function"
    },
    {
      "constant": false,
      "inputs": [
        {
          "name": "num",
          "type": "uint256"
        }
      ],
      "name": "divideByNumber",
      "outputs": [],
      "payable": false,
      "stateMutability": "nonpayable",
      "type": "function"
    }
  ],
  "bytecode": "0x608060405234801561001057600080fd5b5060016000819055506101d7806100286000396000f30060806040526004361061006d576000357c0100000000000000000000000000000000000000000000000000000000900463ffffffff16806306ccd230146100725780630b7e4e7f1461009f578063b4679b06146100cc578063de292789146100f9578063f5cb911d14610124575b600080fd5b34801561007e57600080fd5b5061009d60048036038101908080359060200190929190505050610151565b005b3480156100ab57600080fd5b506100ca60048036038101908080359060200190929190505050610163565b005b3480156100d857600080fd5b506100f760048036038101908080359060200190929190505050610175565b005b34801561010557600080fd5b5061010e610187565b6040518082815260200191505060405180910390f35b34801561013057600080fd5b5061014f60048036038101908080359060200190929190505050610190565b005b80600080828254019250508190555050565b80600080828254039250508190555050565b80600080828254029250508190555050565b60008054905090565b806000808282548115156101a057fe5b0492505081905550505600a165627a7a72305820e4e223c3b5792a2f568c7ef4e6aac8a0bb85249f7d138d32fbe863b435a37c7a0029",
  "source": "/**\n * Skeleton code for Calculator\n **/\n\npragma solidity 0.4.24;\n\nimport \"./SafeMath.sol\";\n\ncontract Calculator {\n  using SafeMath for *;\n\n  uint result;  // Result of the operation are always stored in this variable\n\n  constructor()\n  public {\n    result = 1;\n  }\n\n  // returns the result\n  function getResult() public view returns (uint) {\n    return result;\n  }\n\n  // result = result + num\n  function addToNumber(uint num) public {\n    result += num;\n  }\n\n  // result = result - num\n  function substractNumber(uint num) public {\n    result -= num;\n  }\n\n  // result = result * num\n  function multiplyWithNumber(uint num) public {\n    result *= num;\n  }\n\n  // result = result / num\n  function divideByNumber(uint num) public {\n    result /= num;\n  }\n}\n",
  "sourcePath": "/home/mittens/Documents/Cardiff/Pres/code/contracts/Calculator.sol",
  "compiler": {
    "name": "solc",
    "version": "0.4.24+commit.e67f0147.Emscripten.clang"
  },
  "schemaVersion": "2.0.1",
  "updatedAt": "2018-10-23T16:52:08.704Z"
}