{
  "contractName": "SafeMathMock",
  "abi": [
    {
      "payable": false,
      "stateMutability": "nonpayable",
      "type": "fallback"
    },
    {
      "constant": true,
      "inputs": [
        {
          "name": "a",
          "type": "uint256"
        },
        {
          "name": "b",
          "type": "uint256"
        }
      ],
      "name": "mul",
      "outputs": [
        {
          "name": "",
          "type": "uint256"
        }
      ],
      "payable": false,
      "stateMutability": "pure",
      "type": "function"
    },
    {
      "constant": true,
      "inputs": [
        {
          "name": "a",
          "type": "uint256"
        },
        {
          "name": "b",
          "type": "uint256"
        }
      ],
      "name": "div",
      "outputs": [
        {
          "name": "",
          "type": "uint256"
        }
      ],
      "payable": false,
      "stateMutability": "pure",
      "type": "function"
    },
    {
      "constant": true,
      "inputs": [
        {
          "name": "a",
          "type": "uint256"
        },
        {
          "name": "b",
          "type": "uint256"
        }
      ],
      "name": "sub",
      "outputs": [
        {
          "name": "",
          "type": "uint256"
        }
      ],
      "payable": false,
      "stateMutability": "pure",
      "type": "function"
    },
    {
      "constant": true,
      "inputs": [
        {
          "name": "a",
          "type": "uint256"
        },
        {
          "name": "b",
          "type": "uint256"
        }
      ],
      "name": "add",
      "outputs": [
        {
          "name": "",
          "type": "uint256"
        }
      ],
      "payable": false,
      "stateMutability": "pure",
      "type": "function"
    },
    {
      "constant": true,
      "inputs": [
        {
          "name": "a",
          "type": "uint256"
        },
        {
          "name": "b",
          "type": "uint256"
        }
      ],
      "name": "mod",
      "outputs": [
        {
          "name": "",
          "type": "uint256"
        }
      ],
      "payable": false,
      "stateMutability": "pure",
      "type": "function"
    }
  ],
  "bytecode": "0x608060405234801561001057600080fd5b50610355806100206000396000f30060806040526004361061006d576000357c0100000000000000000000000000000000000000000000000000000000900463ffffffff168063771602f71461007f578063a391c15b146100ca578063b67d77c514610115578063c8a4ac9c14610160578063f43f523a146101ab575b34801561007957600080fd5b50600080fd5b34801561008b57600080fd5b506100b460048036038101908080359060200190929190803590602001909291905050506101f6565b6040518082815260200191505060405180910390f35b3480156100d657600080fd5b506100ff600480360381019080803590602001909291908035906020019092919050505061020a565b6040518082815260200191505060405180910390f35b34801561012157600080fd5b5061014a600480360381019080803590602001909291908035906020019092919050505061021e565b6040518082815260200191505060405180910390f35b34801561016c57600080fd5b506101956004803603810190808035906020019092919080359060200190929190505050610232565b6040518082815260200191505060405180910390f35b3480156101b757600080fd5b506101e06004803603810190808035906020019092919080359060200190929190505050610246565b6040518082815260200191505060405180910390f35b6000610202838361025a565b905092915050565b6000610216838361027b565b905092915050565b600061022a83836102a5565b905092915050565b600061023e83836102c6565b905092915050565b60006102528383610304565b905092915050565b600080828401905083811015151561027157600080fd5b8091505092915050565b60008060008311151561028d57600080fd5b828481151561029857fe5b0490508091505092915050565b6000808383111515156102b757600080fd5b82840390508091505092915050565b60008060008414156102db57600091506102fd565b82840290508284828115156102ec57fe5b041415156102f957600080fd5b8091505b5092915050565b600080821415151561031557600080fd5b818381151561032057fe5b069050929150505600a165627a7a7230582084652c0600aea938af448ea80453918e014f9eb4780c98c9c645e6788bc334550029",
  "source": "pragma solidity ^0.4.24;\n\nimport \"./SafeMath.sol\";\n\ncontract SafeMathMock {\n\n    function mul(uint256 a, uint256 b) public pure returns (uint256) {\n        return SafeMath.mul(a, b);\n    }\n\n    function div(uint256 a, uint256 b) public pure returns (uint256) {\n        return SafeMath.div(a, b);\n    }\n\n    function sub(uint256 a, uint256 b) public pure returns (uint256) {\n        return SafeMath.sub(a, b);\n    }\n\n    function add(uint256 a, uint256 b) public pure returns (uint256) {\n        return SafeMath.add(a, b);\n    }\n\n    function mod(uint256 a, uint256 b) public pure returns (uint256) {\n        return SafeMath.mod(a, b);\n    }\n\n    /**\n     * @dev Fallback function that does not accept Ether.\n     */\n    function ()\n    public\n     {\n        revert();\n    }\n}\n",
  "sourcePath": "/home/mittens/Documents/Cardiff/Pres/code/contracts/SafeMathMock.sol",
  "compiler": {
    "name": "solc",
    "version": "0.4.24+commit.e67f0147.Emscripten.clang"
  },
  "schemaVersion": "2.0.1",
  "updatedAt": "2018-10-23T16:52:08.702Z"
}